:1000000009C019C018C017C016C015C014C013C04D
:1000100012C011C011241FBECFE9CDBF10E0A0E671
:10002000B0E0EEE4F0E002C005900D92AC39B1070B
:10003000D9F702D00AC0E4CF87B3876087BBBC98EA
:0E004000BB98C298C198C098FFCFF894FFCF2C
:10004E00C701BD01B201A7019D01930189017F0185
:10005E0075016B0162015901500147013E013601E4
:10006E002D0125011D0115010E010601FF00F800ED
:0C007E00F100EA00E400DD00D700D10032
:00000001FF
