:1000000009C019C033C017C016C015C014C013C032
:1000100013C011C011241FBECFE9CDBF10E0A0E670
:10002000B0E0EAE2F1E002C005900D92A236B1071D
:10003000D9F765D078C0E4CF1F920F920FB60F9218
:1000400011248F939F93809160009091610001979C
:10005000909361008093600084B7877F84BF9F91F5
:100060008F910F900FBE0F901F9018951F920F92B7
:100070000FB60F9211248F939F9380EB94E090938F
:100080006100809360009F918F910F900FBE0F9041
:100090001F9018958BB780628BBFAA9A8AB780622F
:1000A0008ABF7894089586E481BD81B5877F81BD3C
:1000B00084B7877F84BF0895B4990CC08FEF99E00F
:1000C0000197F1F700C0000086B38295817091E03E
:1000D0008927089580E00895C39A0895C3980895E4
:1000E000F894FCDF8CE390E0EFEFFCE73197F1F759
:1000F00000C000000197C1F7EFDF78940895BB9A24
:10010000BA98BC98E9DFC6DFCEDFD6DF882311F0CE
:10011000E3DFFBCF80916000909161001816190613
:0A012000A4F3DEDFF2CFF894FFCF66
:02012A00B0041F
:00000001FF
