:1000000009C019C018C017C016C015C014C013C04D
:1000100012C011C011241FBECFE9CDBF10E0A0E671
:10002000B0E0E8E3F1E002C005900D92AC39B10711
:10003000D9F752D07FC0E4CFC09AC19AC29A08952E
:10004000C098C198C29808953898399A089587B190
:10005000836087B9089586B1836086B9379A089519
:10006000369A3699FECF84B195B10895EDDFF8DF69
:100070006DE170E03AD06FEF73E048D0862F0895BD
:10008000CF93DF93E4DFECDFEC01C53883E0D807E2
:1000900018F0DF91CF91D4CFE9DFE82FF0E0EE0F39
:1000A000FF1FE05AFF4F8081918103968C179D07B7
:1000B00018F4DF91CF91C0CFD9DFE82FF0E0EE0F39
:1000C000FF1FE05AFF4F808191810397C817D9071E
:1000D00000F3DF91CF91089587B3876087BBBC9809
:1000E000BB98AEDFB8DFCCDFFECF0024552704C0BD
:1000F000080E591F880F991F009729F0769567956C
:10010000B8F37105B9F7802D952F0895AA1BBB1B75
:1001100051E107C0AA1FBB1FA617B70710F0A61B07
:10012000B70B881F991F5A95A9F780959095BC0128
:08013000CD010895F894FFCF02
:10013800C701BD01B201A7019D01930189017F019A
:1001480075016B0162015901500147013E013601F9
:100158002D0125011D0115010E010601FF00F80002
:0C016800F100EA00E400DD00D700D10047
:00000001FF
