:1000000009C00EC00DC00CC00BC00AC009C008C09A
:1000100007C006C011241FBECFE9CDBF2ED036C009
:10002000EFCFB3990DC08FEB9DE50197F1F700C0BD
:10003000000086B383FB882780F991E08927089523
:1000400080E008958FB583608FBD8FB5806C8FBDC4
:1000500082E083BF0895809586BF0895389A3D9ABF
:1000600086B1836086B9379A84B3886384BB089568
:10007000369A3699FECF85B10895B89ABB98C39A3F
:10008000E1DFECDFF5DF809586BFFCCFF894FFCF92
:00000001FF
