:1000000009C016C015C014C013C012C011C010C062
:100010000FC00EC011241FBECFE9CDBF20E0A0E667
:10002000B0E001C01D92A336B207E1F784D0C7C08B
:10003000E7CFB3990DC08FEB9DE50197F1F700C0B5
:10004000000086B383FB882780F991E08927089513
:1000500080E008958FB583608FBD8FB5806C8FBDB4
:1000600082E083BF0895809586BF089580916000E7
:10007000809586BF08950F931F93CF93C82F682F45
:1000800070E080916000681B710980ED97E070D08E
:100090008B01809160008C17A8F420E030E02017DD
:1000A000310749F08BE291E00197F1F700C00000C1
:1000B0002F5F3F4FF4CF909160009F5F909360005F
:1000C000D5DFE7CFCF911F910F910895CF93DF93A5
:1000D0006091600070E080ED97E04AD0EB01809184
:1000E00060008823A1F080E090E08C179D0741F02C
:1000F000EBE2F1E03197F1F700C000000196F5CF97
:1001000080916000815080936000B0DFE8CFDF9184
:10011000CF91089586B70895389A3D9A86B1836045
:1001200086B9379A84B3886384BB0895369A369922
:10013000FECF85B10895B89ABB98C39A8BDFECDFE8
:10014000F5DF94DFF3DF2FE739EA93E02150304009
:100150009040E1F700C000008EDF2FEF32E587E02E
:10016000215030408040E1F700C00000AFDFEACF0F
:1001700097FB072E16F4009406D077FD08D00BD01D
:1001800007FC05D03EF4909581959F4F089570959A
:1001900061957F4F0895AA1BBB1B51E107C0AA1FA1
:1001A000BB1FA617B70710F0A61BB70B881F991F18
:1001B0005A95A9F780959095BC01CD010895F894C2
:0201C000FFCF6F
:00000001FF
