:1000000009C00EC00DC00CC00BC00AC009C008C09A
:1000100007C006C011241FBECFE9CDBF13D042C018
:10002000EFCFB3990DC08FEB9DE50197F1F700C0BD
:10003000000086B383FB882780F991E08927089523
:1000400080E00895CF93DF93CDB7DD27C450CDBFB7
:10005000B89ABB98C39A8FB583608FBD8FB58068FF
:100060008FBD82E083BF19828AE08A8388E48B8314
:100070008FEF8C8316BE10E0D4DF8823E9F31F5F77
:10008000143008F010E0E1E0F0E0EC0FFD1FE10FAC
:10009000F11D808186BF8FE59AEE0197F1F700C0D0
:0800A0000000EACFF894FFCF45
:00000001FF
