:1000000009C022C020C01FC01EC01DC01CC01BC014
:100010001AC019C011241FBECFE9CDBF10E0A0E661
:10002000B0E0E4E1F2E002C005900D92A236B10723
:10003000D9F720E0A2E6B0E001C01D92A436B207D5
:10004000E1F7CFD0E5C0DCCF1F920F920FB60F9231
:1000500011242F938F939F938FEB9DE50197F1F7D9
:1000600000C00000B19B1FC080916200811103C0DD
:1000700081E080936200809162008330A1F48091DE
:100080006000909161008037974138F48091600062
:10009000909161008053984F02C080E49FE190935B
:1000A0006100809360009F918F912F910F900FBE00
:1000B0000F901F9018958BB780648BBF85B78360B6
:1000C00085BF78940895B1990CC08FEB9DE5019799
:1000D000F1F700C0000086B38695817091E0892712
:1000E000089580E008958FB583608FBD8FB5806CD3
:1000F0008FBD82E083BF0895809586BF089580916B
:100100006300809586BF0895CF93DF931F92CDB78C
:10011000DD2790916300981778F4EBE3FFE03197C7
:10012000F1F700C00000909163009F5F909363001F
:100130008983E5DF8981EDCF0F90DF91CF9108951D
:1001400080916300882369F08BE39FE00197F1F7CA
:1001500000C0000080916300815080936300CFDF76
:10016000EFCF089582E08093620086E9CDDF83E0DF
:100170008093620080E49FE190936100809360002F
:100180008091600090916100892B61F08BE291E099
:100190000197F1F700C0000080916000909161002C
:1001A0000197EACF84E080936200CADF1092620078
:1001B000089586B7089587B1836087B986B1836053
:1001C00086B9379A0895369A3699FECF84B195B19B
:1001D0000895F9DF21E08E35910508F020E0822FA7
:1001E000089587B3816187BBB998BB98C19AC498B9
:1001F0007ADFE1DF60DF8FEF86BF809162008130C0
:10020000E1F7E7DF8823C9F3C49AACDFC498F5CFE0
:04021000F894FFCF90
:02021400401F89
:00000001FF
