:1000000009C022C020C01FC01EC01DC01CC01BC014
:1000100002C119C011241FBECFE9CDBF10E0A0E678
:10002000B0E0E4E8F3E002C005900D92A236B1071B
:10003000D9F720E0A2E6B0E001C01D92A33AB207D2
:10004000E1F76ED19DC1DCCF1F920F920FB60F92D8
:1000500011242F938F939F9387EB9BE00197F1F7E8
:1000600000C00000B19B1FC080916500811103C0DA
:1000700081E080936500809165008330A1F48091D8
:10008000600090916100803A9F4038F48091600058
:1000900090916100805C904E02C080EE9EE2909351
:1000A0006100809360009F918F912F910F900FBE00
:1000B0000F901F9018959DE088E10FB6F894A895D1
:1000C00081BD0FBE91BD81B5806481BD80E090E0AF
:1000D000FC01EE0FFF1FE959FF4F118210820196BC
:1000E0008E319105A9F708958BB780648BBF85B7D2
:1000F000836085BF78940895B1990CC08FEB9DE51E
:100100000197F1F700C0000086B38695817091E0F9
:100110008927089580E008958FB583608FBD8FB5DE
:10012000806C8FBD82E083BF0895809586BF08955F
:1001300080916600809586BF0895CF93DF931F92CC
:10014000CDB7DD2790916600981778F4EFE6F7E1D8
:100150003197F1F700C00000909166009F5F909387
:1001600066008983E5DF8981EDCF0F90DF91CF9124
:10017000089580916600882369F08FE697E10197E2
:10018000F1F700C000008091660081508093660006
:10019000CFDFEFCF089582E0809365002FEB84EDF1
:1001A00091E0215080409040E1F700C0000084E6DB
:1001B000C4DF83E08093650080EE9EE2909361004F
:1001C000809360008091600090916100892B61F0C4
:1001D0008BE291E00197F1F700C000008091600090
:1001E000909161000197EACF84E080936500C1DFC0
:1001F00010926500089586B7089587B1836087B926
:1002000086B1836086B9379A0895369A3699FECFBB
:1002100084B195B108951F920F920FB60F921124D9
:100220002F933F934F935F936F937F938F939F93FE
:10023000AF93BF93CF93DF93EF93FF93C09162008F
:10024000D0E0E3DFCC0FDD1FC959DF4F99838883EE
:10025000809162008E3130F4809162008F5F8093D4
:10026000620002C010926200FF91EF91DF91CF9186
:10027000BF91AF919F918F917F916F915F914F91BE
:100280003F912F910F900FBE0F901F90189521E076
:10029000899708F020E0822F08958F929F92AF9265
:1002A000BF92CF92DF92EF92FF920F931F9360E085
:1002B00070E080E090E088248A94982CA12CB12CE6
:1002C000FB01EE0FFF1FE959FF4F0081118120E074
:1002D00030E075016401C81AD90AE108F108C016B6
:1002E000D106E206F3062CF020813181820F931FA4
:1002F00002C08FEF9FEF6F5F7F4F6E31710501F787
:100300002BD070936400609363001F910F91FF9056
:10031000EF90DF90CF90BF90AF909F908F90089517
:1003200087B3816187BBB998BB98C19AC498F4DE42
:1003300064DFDADEC0DE8FEF86BF8091650081303A
:10034000E1F7ABDF80916300909164008997A8F793
:10035000C49A21DFC498F1CFAA1BBB1B51E107C08F
:10036000AA1FBB1FA617B70710F0A61BB70B881F45
:10037000991F5A95A9F780959095BC01CD010895D4
:04038000F894FFCF1F
:02038400E02E69
:00000001FF
