:1000000009C021C020C01FC01EC01DC01CC01BC015
:100010001AC019C011241FBECFE9CDBF10E0A0E661
:10002000B0E0EEEFF1E002C005900D92A236B1070C
:10003000D9F720E0A2E6B0E001C01D92A436B207D5
:10004000E1F7A8D0DAC0DCCFB3990DC08FEB9DE506
:100050000197F1F700C0000086B383FB882780F981
:1000600091E08927089580E008958FB583608FBD62
:100070008FB5806C8FBD82E083BF0895809586BF69
:10008000089580916300809586BF08950F931F9314
:10009000CF93C82F682F70E080916300681B7109AF
:1000A00080ED97E083D08B01809163008C17A8F4DA
:1000B00020E030E02017310749F08BE291E0019712
:1000C000F1F700C000002F5F3F4FF4CF9091630025
:1000D0009F5F90936300D5DFE7CFCF911F910F9182
:1000E0000895CF93DF936091630070E080ED97E017
:1000F0005DD0EB01809163008823A1F080E090E067
:100100008C179D0741F0EBE2F1E03197F1F700C069
:1001100000000196F5CF80916300815080936300C9
:10012000B0DFE8CFDF91CF91089581E08093620046
:1001300080E8ACDF82E08093620080E49FE19093EE
:100140006100809360008091600090916100892B34
:1001500061F08BE291E00197F1F700C0000080911F
:100160006000909161000197EACF83E08093620084
:10017000B8DF10926200089586B70895389A3D9AC4
:1001800086B1836086B9379A0895369A3699FECF3C
:1001900085B10895B89ABB98C39A67DFEFDFF5DFA2
:1001A00070DF52DF8823E9F3C0DFFBCF97FB072E18
:1001B00016F4009406D077FD08D00BD007FC05D0CC
:1001C0003EF4909581959F4F0895709561957F4F6E
:1001D0000895AA1BBB1B51E107C0AA1FBB1FA6178E
:1001E000B70710F0A61BB70B881F991F5A95A9F7E0
:0E01F00080959095BC01CD010895F894FFCF45
:0201FE00401FA0
:00000001FF
